:020000040000FA
:06000000F2EF0BF012000C
:020006001200E6
:06000800D2EF07F0120028
:02000E00C250DE
:08001000020B01E0010E1200D9
:06001800C1EF07F0120029
:02001E000200DE
:1000200066180000240F0000020000005C180000A9
:080030001A0F00000A00000095
:0800380058EC05F0FB0EDBCFD4
:10004000F3FFDB06F35000090AE0A6EC05F0FA0E18
:1000500011EC06F0F3E1151CF1E1010E01D0000EE8
:1000600087EF05F058EC05F03B0EE12402E3E16870
:10007000E652E16E010EDB6A020EDB6AF90EDBCF9F
:10008000F6FFFA0EDBCFF7FFFB0EDBCFF8FF080021
:10009000F550DF6EDF5002E1ABEF04F0250EDF5CC0
:1000A00002E09EEF04F0030EDB6A040EDB6A050E2D
:1000B000DB6A060EDB6A070EDB6AC0EC04F02D0E6D
:1000C000DF5C0CE02B0EDF5C09E0200EDF5C06E05D
:1000D000230EDF5C03E0300EDF5C1AE1DF50300AF4
:1000E00014E0130A0FE0030A0AE00B0A05E0060A0F
:1000F000E4E1030EDB80E1D7030EDB82DED7030EE3
:10010000DB84DBD7030EDB86D8D7030EDB88D5D79D
:100110002A0EDF5C1BE1BCEC04F00AEC05F010E0F9
:10012000030EDB8008680968130EDBCF0DF0140E98
:10013000DBCF0EF019EC0BF0040E06C0DBFF03D092
:10014000130EF3EC04F0C0EC04F00BD0090EDB6AE4
:1001500061EC05F003E0D5EC05F0FAD7090EF3ECFD
:1001600004F0030EDBB0DB982E0EDF5C1BE1C0EC6D
:1001700004F02A0EDF5C0BE1BCEC04F00AEC05F0A5
:1001800003E1130E45EC05F0C0EC04F00BD0090EB2
:10019000DB6A61EC05F003E0D5EC05F0FAD7090E57
:1001A00045EC05F0680EDF5C07E1C0EC04F0680E7A
:1001B000DF5C1DE1030E18D0740EDF5C17E07A0ED1
:1001C000DF5C14E0480EDF5C06E0540EDF5C03E009
:1001D0005A0EDF5C02E1020E07D06C0EDF5C03E01A
:1001E0006A0EDF5C04E1010E98EC05F0C9DBDF501C
:1001F0006E0A01E17FD31E0A01E192D1200A01E1DA
:100200008FD13F0A01E149D11A0A01E146D10D0A15
:1002100001E143D1200A01E140D13A0A01E13DD197
:10022000200A01E13AD1260A01E135D10D0A01E1A6
:1002300032D11A0A01E1D9D0200A4AE0300A1FE07F
:10024000460A0EE0250A01E083D3D950F90FE96E82
:10025000FF0EDA20EA6E010EEE5E000EEE5AEE5A46
:10026000A6EC05F0250EE66E95DB03E1151C01E119
:1002700069D3A2EC05F001E26BD3DB2A69D3080E47
:10028000DB6A040EDB50010806E2040EDB046AECB4
:1002900005F0DB508BDB080EDB5009E0030EDB5072
:1002A000010B05E172DB01E04DD3080EDB6A64DB74
:1002B000EFCFDFFF1AEC06F003E1151C01E142D39A
:1002C000A2EC05F001E3DB2A60DB01E141D33AD384
:1002D000070EDB5002080FE1E6EC05F0030EADEC73
:1002E00005F00E0EEECFDBFF0F0EEECFDBFF100E94
:1002F000EECFDBFF20D0F70EDBCF17F0F80EDBCF11
:1003000018F0020E175E000E185AF70E17C0DBFF2A
:10031000F80E18C0DBFF17C0E9FF18C0EAFF9DEC1C
:1003200005F0166A0E0E14C0DBFF0F0E15C0DBFFC2
:10033000100E16C0DBFF0E0EDBCFE6FF0F0EDBCF7D
:10034000E6FF100EDBCFE6FFF4EC0AF0E552E552D3
:10035000E552130E07C0DBFF140E08C0DBFF060ECC
:10036000DB5005E0130EE1EC05F001E26ADB05EC81
:1003700006F002E2130E37DBC8EC05F006E0040ECF
:10038000E1EC05F002E2050E2EDB030EDBB005D03A
:10039000FCDA01E0D7D2080EDB6A090EDB6A0E0E2A
:1003A000DBCFF6FF0F0EDBCFF7FF100EDBCFF8FF32
:1003B0000800F550DF6EDF5014E00BEC06F011E2A0
:1003C0001AEC06F003E1151C01E1BCD2BBDB01E332
:1003D000DB2A090EDB2AD9500E0FE96E000ECBDBAB
:1003E000E7D7D3DA01E1B4D2ADD2C6DA110EEECF3F
:1003F000DBFF120EEDCFDBFF110EDBCFE6FF120E9F
:10040000DBCFE6FFE6EC0AF0E552E552130EF3CF40
:10041000DBFF140EF4CFDBFF060EDB5004E0130EFF
:10042000D0DB01E20EDB05EC06F002E2130EDBDAB4
:10043000AFDB05E0040EC5DB02E2050ED4DA030EE5
:10044000DBB005D0A2DA01E07DD2080EDB6A090E2E
:10045000DB6A110EDBCFE9FF120EDBCFEAFFEFCF35
:10046000DFFFDF5014E0D7DB12E2E4DB03E1151C11
:1004700001E168D267DB01E3DB2A090EDB2A110EFA
:10048000DB2ADBCFE9FF120EE8E3DB2AE6D77DDAD1
:1004900001E15ED257D2030EDB8E070EDB0410E1C2
:1004A00095DB040E5ADB0A0EEECFDBFF0B0EEECF10
:1004B000DBFF0C0EEECFDBFF0D0EEECFDBFF6CD0C3
:1004C000070EDB5003082CE1030EDBAE0DD0B2DAD1
:1004D000020E76DAEFCF14F0156A166A176A14AEB8
:1004E00039D01568166835D0F70EDBCF15F0F80E49
:1004F000DBCF16F0020E155E000E165AF70E15C071
:10050000DBFFF80E16C0DBFF15C0E9FF16C0EAFFDF
:10051000EFCF14F00A0E14C0DBFF0B0EDB6A38D0ED
:10052000070EDB50020809E1030EDBAE04D059DBF5
:1005300016AE10D00ED055DB0DD0030EDBAE12D0B0
:1005400079DA020E3DDAF9DA166A176A15AE02D0C8
:1005500016681768E2DA0C0E16C0DBFF0D0E17C026
:10056000DBFF1AD0F70EDBCF16F0F80EDBCF17F05B
:10057000020E165E000E175AF70E16C0DBFFF80EBD
:1005800017C0DBFF16C0E9FF17C0EAFFD6DAC5DAED
:100590000C0EDB6A0D0EDB6A060EDB5005E1010E68
:1005A000F36E050EF3CFDBFF150EDB6A160EDB6A6A
:1005B000D950370F146E000EDA20156E390E14C0A4
:1005C000DBFF3A0E15C0DBFF380EDB6A080EDB6A74
:1005D0000A0EAEDADF50780A12E0200A10E0280A8C
:1005E0000CE0200A0AE03F0A06E00D0A02E0200AB9
:1005F00008E1020E05D0080E03D0080EDF26100E0B
:1006000097DA030EDBBE02D0DB92DB94DB50800B6B
:1006100024E08ADAD890030EEB50000A08E6000EB8
:10062000EE5C000EEE58000EEE58000EEE5815E28D
:1006300013DA0B680C680D680E6877EC0AF00A0E86
:1006400002C0DBFF0B0E03C0DBFF0C0E04C0DBFFA0
:100650000D0E05C0DBFF2D0E08D0030EDBA202D06D
:100660002B0E03D0DBA408D0200EF36E170EF3CFB1
:10067000DBFF150EDB2A02D0170EDB6A050EDB50FE
:1006800003E1B7D901E189D0440E146E180E156E3E
:10069000000E166E070EDBCF17F0186A196A1A6A79
:1006A00017C00BF018C00CF019C00DF01AC00EF0F6
:1006B000D3D96BEC0BF014500224F36E15500320C9
:1006C000F46E16500420F86EF4CFF7FFF3CFF6FF68
:1006D0000800090EF5CFDBFF580EDF5C0FE1610E5D
:1006E000F36E090E7BD90AE3200E146E090EDBCFE0
:1006F000E7FF1450E75E090EE7CFDBFF070EDBCF05
:1007000014F0156A166A176A0FDA14C00BF015C0D8
:100710000CF016C00DF017C00EF0EECF06F0EECFC5
:1007200007F0EECF08F0EFCF09F06BEC0BF009C04B
:10073000EDFF08C0EDFF07C0EDFF06C0EFFF390E6B
:10074000DBCFE9FFDB063A0EDBCFEAFF01E2DB0697
:10075000090EDBCFEFFF150EDB2A4BD995E1030E17
:10076000DBA61DD06F0EDF5C06E1C1D918E3150EC4
:10077000DB285BDA14D0780EDF5C09E0580EDF5C12
:1007800006E0620EDF5C03E0420EDF5C08E1020E71
:10079000F36E160EF3CFDBFF02D0150EDB6A030EED
:1007A000DB50100B0EE0040EDBCF14F0050EDB5017
:1007B000D880145406E2060EDB5003E1040EDB5031
:1007C00034DA95D90AE2050EDBCFE7FF150EDB50D0
:1007D000E75E050EE7CFDBFF02D0050EDB6A040EF5
:1007E000DBCF14F0160E45D9D880145414E2160E3F
:1007F000DBCFE6FF150EDBCFE6FF040EDBCFE6FF17
:10080000050EDB50E552E75CE552D880E754E5522F
:10081000D880E7545FD9030EDB50010B0BE1080EC3
:10082000DB5008E0B2D801E08DD0080EDB50BED816
:10083000080EDB6A170EDB5007E088D9170EF1D9D6
:1008400003E1151C01E17ED0160EDB5016E07ED9C7
:10085000300EE66E9FD802E1151C74E077D9DFCF29
:10086000E6FFFBEC09F0E552E552E552F4CF15F056
:100870000001F31C02E1151C65E0050EDBCF14F04E
:10088000160EDB50D880145409E2050EDBCFE7FFCB
:10089000160EDB50E75E050EE7CFDBFF300EE66E8F
:1008A000050ECBD94FE1390EDB2ADBCFE9FF3A0E3B
:1008B00001E3DB2ADBCFEAFF090EEFCFDBFFDB50E2
:1008C0000EE044D9090EADD902E1151C3BE0390E0A
:1008D000DB2ADBCFE9FF3A0EEDE3DB2AEBD755D875
:1008E00031E1160EDBCFE6FF080EC3D8E552E72450
:1008F0005DD82ED0070EDB50030A1CE0010A14E07D
:10090000030A07E07BD9DBCFEEFF020EDBCFEDFF62
:100910001FD0F5D8196A17AE02D0186819682CD8FC
:10092000BCD819C0EEFF14D0EAD817BE186824D876
:10093000B4D80ED063D9DBCFEFFF0AD07BD905E165
:10094000151C03E1F368F46810D0FCD801E3DB2A3E
:1009500079D947EF00F0010EDBCF14F0020EDBCFA8
:1009600015F014C0F3FF15C0F4FF3B0EE15C02E28A
:10097000E16AE552E16ECBD029D9020EADEF05F068
:1009800061D90800F550DF6E1200200EE66E080EE9
:100990001DEF06F0FBEC09F0E552E552E552F3CF0E
:1009A00014F0F4CF15F00001F31C1200146E156A58
:1009B000D950010F4DD91450EE261550ED221200DA
:1009C000185E000E195AF70E18C0DBFFF80E19C09A
:1009D000DBFF18C0E9FF19C0EAFF1200DBCFF4FF0C
:1009E000F350F45C1200DB50E76E040EE7CFDBFF40
:1009F00012000A0EDBCF14F00B0EDBCF15F00C0E3D
:100A0000DBCF16F00D0EDBCF17F0145015101610BB
:100A100017101200130EEECFDBFF140EEDCFDBFF2D
:100A2000130EDBCF14F0140EDBCF15F00001800E97
:100A300015141200F70EDBCF18F0F80EDBCF19F00B
:100A40001200050EDB50E66ED950130F01D9E552A6
:100A5000E750EE6EED6A12000A0EDBCF06F00B0EC9
:100A6000DBCF07F00C0EDBCF08F00D0EDBCF09F06B
:100A70001200DBCFE6FF150EDBCFE6FF050EDB50E5
:100A8000E552E724E552E7241200DB50CED8010EF0
:100A9000F36E060EF3CFDBFF1200EE50EFCFEAFF4E
:100AA000E96E16C0EEFF17C0EEFF18C0EEFF120091
:100AB000D9CFE6FFDACFE6FFE1CFD9FFE2CFDAFF09
:100AC0001200DFCFE6FFE66AC0EC0BF0E552E5521C
:100AD000F3501200E76E080EE7CFDBFF1200EECFF7
:100AE00014F0EECF15F0EFCF16F0176A1200050ED6
:100AF000DBCF14F0150EDB50D88014541200010E19
:100B0000DBCF16F0020EDBCF17F0186A1200E552A9
:100B1000E5CFDAFFE7CFD9FF12000A0E14C0DBFFE2
:100B20000B0E15C0DBFF1200D9500A0F28EF06F09C
:100B3000F36E070EF3CFDBFF1200EECF14F0EFCF12
:100B400015F01200010EDB2A020E1200FC0EDBCFA4
:100B5000E6FFFD0EDBCFE6FF1200145E000E155A15
:100B6000F70E14C0DBFFF80E15C0DBFF14C0E9FF61
:100B700015C0EAFF1200DA20EA6EEF2AEECFF6FF88
:100B8000000EEF22EECFF7FFEF22EECFF8FF1200BC
:100B9000040EDBCFE6FF130EDB50E552E75C9ADF75
:100BA000DB5004DF060EDB501200090EDB500A0D8D
:100BB000F350DF24D00FE76E090EE7CFDBFFC0EF65
:100BC00004F0DB50F36E050EEEEF04F0F70EDBCF12
:100BD00014F0F80EDBCF15F01200DFCFE6FFCAEFFE
:100BE00004F028DF030EECDE6FEF05F01CEC00F0E4
:100BF000E552E552E552E55200091200BDDEEE5025
:100C0000EFCFEAFFE96E010E1200130EDB50F36E18
:100C1000040EEEEF04F0040EDB50F36E090EEEEF5F
:100C200004F0DBCFE6FFCAEF04F0E76E050EE7CF76
:100C3000DBFF12008BDFEDEF05F0DBCFE6FF86DF99
:100C4000F6EF05F0D950F90FE96EFF0EBBEF05F096
:0A0C5000E96E000EDA20EA6E1200D1
:060C5A00C78EC79CC68A8C
:100C6000C688C6908882838E280EE66EE66AE66A9B
:100C7000E66A46EC0BF0E552E552E552E552390ED4
:100C8000E66E38D8E5521D0EE66E34D8E552500EA9
:100C9000E66E30D8E5526C0EE66E2CD8E552C80EE2
:100CA000E66EE66AE66AE66A46EC0BF0E552E55265
:100CB000E552E5527B0EE66E1DD8E552380EE66E23
:100CC00019D8E5520C0EE66E15D8E552010EE66E07
:100CD00011D8E552020EE66EE66AE66AE66A46EC6E
:100CE0000BF0E552E552E552E552060EE66E02D8EB
:100CF000E5521200D9CFE6FFE1CFD9FFE652889046
:100D00009E968892FE0EDB50C96E9EA6FED7888204
:100D1000020EE66ED2EC0BF0E552E552E552E7CF5B
:100D2000D9FF1200D9CFE6FFE1CFD9FFE652FC0E82
:100D3000DB508009E66EDEDFE5528880DF6ADF5037
:100D4000E76EFD0EDBCFE9FFFE0EDBCFEAFFE750DB
:100D5000E926000EEA22EF501DE0100EDF5C1AE2D9
:100D60009E968892DF50E76EFD0EDBCFE9FFFE0E08
:100D7000DBCFEAFFE750E926000EEA22EF50C96E0A
:100D80009EA6FED78882020EE66ED2EC0BF0E552EC
:100D9000DF2AD5D7E552E552E7CFD9FF1200010E81
:100DA000E66EA8DFE552020EE66ED2EC0BF0E552DD
:100DB0001200D9CFE6FFE1CFD9FF390EE66E9ADFF8
:100DC000E552FE0EDB500F0B7009E66E93DFE55225
:100DD000E552E7CFD9FF1200D9CFE6FFE1CFD9FF27
:100DE000FE0EDB50020A09E0030A05E0010A07E1F2
:100DF0008394839604D0839401D083848386E552C0
:060E0000E7CFD9FF12004C
:0A0E0600D9CFE6FFE1CFD9FFFE0EC1
:100E1000DB50080821E3010EF36EFE0EDBCFF4FF7A
:100E2000F350F45C19E3FE0EDB04146E010E145251
:100E300004E0E846FE0B1406FCE1E81C0F011B175A
:100E4000FE0EDB04146E010E145204E0E846FE0BA5
:100E50001406FCE10F011B13E552E7CFD9FF120086
:100E6000D9CFE6FFE1CFD9FFFE0EDB50080854E3EF
:100E7000010EF36EFE0EDBCFF4FFF350F45C4CE397
:100E8000FD0EDBCF14F07D0EE76E1418E8AE02D035
:100E9000143403D0E750D880145405E27D0EF36E6D
:100EA000FD0EF3CFDBFFFD0EDBCF14F0830EE76EFC
:100EB0001418E8AE02D0E73402D0E750145C05E223
:100EC000830EF36EFD0EF3CFDBFFFE0EDB04146E1C
:100ED000010E145204E0E846FE0B1406FCE10F017B
:100EE0001B1510E0FD0EDB50FF0DF350E66EFE0EFD
:100EF000DB04EA6A1C0FE96E0F0EEA22E552E750A6
:100F0000EF6E0AD0FE0EDB04EA6A1C0FE96E0F0ECC
:100F1000EA22FD0EDBCFEFFFE552E7CFD9FF12004B
:100F2000D9CFE6FFE1CFD9FFFE0EDB50080825E35D
:100F3000010EF36EFE0EDBCFF4FFF350F45C1DE305
:100F4000FD0EDB500DE0FE0EDB04146E010E14529C
:100F500004E0E846FE0B1406FCE10F011A130DD065
:100F6000FE0EDB04146E010E145204E0E846FE0B84
:100F70001406FCE1E81C0F011A17E552E7CFD9FF70
:020F800012005D
:0E0F8200D8CFE4FFE0CFE4FFE46EDACFE4FF67
:100F9000E652E552E5CFDAFFE550E5CFE0FFE5CFD9
:100FA000D8FF1000DACFE4FFE9CFE4FFEACFE4FF97
:100FB000E652A4960F01242B2451040A01E17AD0B1
:100FC000070A41E0010A33E0030A01E07BD00C0E7E
:100FD0007826010E25CFE7FFE75204E0E846FE0B36
:100FE000E706FCE10F011A156DE00F012551070A14
:100FF0001CE0010A18E0030A14E0010A10E0070AE5
:101000000CE0010A08E0030A04E0010A5BE1848EB7
:1010100059D0848857D0848655D0848453D0848214
:1010200051D084804FD086804DD086864BD0800EA4
:101030001B6E2551EA6A1C0FE96E0F0EEA22EF5073
:101040001B5C786E3FD02551EA6A1C0FE96E0F0ECB
:10105000EA22EF50800F786E010E25CFE7FFE752AE
:1010600004E0E846FE0BE706FCE10F011A152AE052
:101070000F012551070A1CE0010A18E0030A14E0D9
:10108000010A10E0070A0CE0010A08E0030A04E084
:10109000010A18E1849E16D0849814D0849612D048
:1010A000849410D084920ED084900CD086900AD074
:1010B000869608D0890E7826246B252B080E255D90
:1010C00001E1256BE552E5CFEAFFE5CFE9FFE5CF8A
:0410D000DAFF110032
:0C10D400B7EC09F02DEC06F03DEC0AF042
:1010E000010EE66EECEC06F0E5520F01070E1A6FEA
:1010F0000F01020E1B6FE66A010EE66E30EC07F080
:10110000E552E552E66A020EE66E30EC07F0E55273
:10111000E552400E146E170E156E166A14C0E6FFE7
:10112000E66E16C0E6FF000EE66E0F0EE66E12ECDF
:1011300009F0176E050EE15E1750E66A000EE66EC6
:101140000F0EE66E92EC06F0E552E552E5522F0ED8
:10115000146E170E156E166A14C0E6FFE66E16C002
:10116000E6FF000EE66E0F0EE66E12EC09F0176E4B
:10117000050EE15E1750100EE66E000EE66E0F0EC5
:10118000E66E92EC06F0E552E552E5521E0E146E44
:10119000170E156E166A14C0E6FFE66E16C0E6FF5F
:1011A000000EE66E0F0EE66E12EC09F0176E050EDD
:1011B000E15E1750200EE66E000EE66E0F0EE66E34
:1011C00092EC06F0E552E552E55283A209D0640E96
:1011D000E66E010EE66E30EC07F0E552E5528878D7
:1011E00083A009D0F60EE66E010EE66E30EC07F035
:1011F000E552E552887A80AE09D0640EE66E020EA2
:10120000E66E30EC07F0E552E552887C88A6DDD723
:10121000F60EE66E020EE66E30EC07F0E552E55291
:04122000887ED3D71A
:0C122400D9CFE6FFDACFE6FFE1CFD9FF1B
:10123000E2CFDAFFE652E652E652E652D950F90F13
:10124000146EFF0EDA20156E020E14C0DBFF030EC3
:1012500015C0DBFF020EDBCFE6FF030EDBCFE6FFA0
:10126000F90EDBCFE6FFFA0EDBCFE6FFFB0EDBCF9E
:10127000E6FFD950FC0FE66EFF0EDA20E66E32EC88
:1012800000F0146E070EE15C02E2E16AE552E16EE5
:101290001450F3CFDEFFF4CFDDFFFC0EDBCFE9FF10
:1012A000FD0EDBCFEAFFEF6ADECF14F0DDCF15F0E5
:1012B00014C0F3FF15C0F4FF040EE15C02E2E16A22
:1012C000E552E16EE552E5CFDAFFE7CFD9FF120034
:1012D0001E0EF66E000EF76E000EF86E0F0109007E
:1012E000F550156F0900F550166F03E1156701D031
:1012F0003DD00900F550106F0900F550116F09003D
:10130000F550126F09000900F550E96E0900F5501B
:10131000EA6E090009000900F550136F0900F55045
:10132000146F09000900F6CF17FFF7CF18FFF8CFA9
:1013300019FF10CFF6FF11CFF7FF12CFF8FF0F0103
:10134000135302E1145307E00900F550EE6E130742
:10135000F8E21407F9D717CFF6FF18CFF7FF19CF28
:0E136000F8FF0F011507000E165BBFD7120035
:02136E009A984B
:101370009A9A9A9C9A9E95829580928E9A86938844
:10138000938A969E96989696969496929690989012
:101390009988978297809286928492829280928A8C
:1013A000978C9784998E978A9786998C998A978833
:1013B000979E959E9A909A92949A949695949596C3
:1013C000979E8898889A889C889E849E8498849604
:1013D00084948492849086908696839E8394839648
:1013E000858ED38CD38AD3989B8CD08E768276844C
:0613F000A386F28E12003C
:0A13F600D9CFE6FFDACFE6FFE1CF22
:10140000D9FFE2CFDAFFFB0EDBCF14F0FC0EDBCF0F
:1014100015F00001800E15141AE1FB0EDBCFE9FF79
:10142000FC0EDBCFEAFFEECFF3FFEDCFF4FFEE2AA9
:10143000000EEF22F3CFE9FFF4CFEAFFFD0EDBCF82
:10144000EFFFEF50156AF36E15C0F4FF10D0FB0EDE
:10145000DB50FE0806E1FD0EDBCFE6FF00EC0CF0F2
:1014600005D0FD0EDBCFE6FF03EC00F0E552E552C0
:0A147000E5CFDAFFE7CFD9FF120045
:06147A00E66A040EE66EB6
:10148000910EE66EAFEC0AF0E552E552E552320EEF
:10149000E66E0EEC0CF0E5521200D9CFE6FFE1CF7C
:1014A000D9FF020EE126FE0EDBCFE6FFA9EC0BF022
:1014B000E5522BEC0CF007EC00F00009FCE119EC14
:1014C0000CF0F3CFDEFFF4CFDDFFDECF14F0DDCF85
:1014D00015F014C0F3FF15C0F4FF020EE15C02E248
:0E14E000E16AE552E16EE552E7CFD9FF120056
:0214EE000650A6
:1014F0000B02F3CF02F0F4CF03F00C02F3500326FB
:10150000000EF420046E06500D02F3500426000E67
:10151000F420056E06500E02F350052607500B020C
:10152000F3500326F4500422000E052207500C024B
:10153000F3500426F450052207500D02F3500526FF
:1015400008500B02F3500426F450052208500C02F8
:0E155000F350052609500B02F3500526120039
:02155E00D9CFE3
:10156000E6FFDACFE6FFE1CFD9FFE2CFDAFFC26ACA
:10157000C06AFC0EDB407F0B3C0BC26EFB0EDBCF68
:10158000E6FFFC0EDB38F00B300BE552E710C16EC6
:10159000FD0EDB50040DF350380B156EFD0EDB38DD
:1015A0000F0B070B146EFD0EDB50800B1410151083
:1015B000C06EFC0EDBAE03D09E9C9D8CF28CC28074
:0C15C000E552E5CFDAFFE7CFD9FF1200BB
:0415CC00FE0EE3CF5D
:1015D000E9FFFF0EE3CFEAFFF36AF46AEE5203E09D
:1015E000F34AF42AFBD71200FF0EE3CFF8FFE552CF
:1015F000FF0EE3CFF7FFE552FF0EE3CFF6FFE55214
:10160000E66AE66AE66A0900F55209E0FD0EE32A99
:1016100005E1FE0EE32A02E1FF0EE32AF4D7FD0EF8
:10162000E3CF07F0FE0EE3CF08F0FF0EE3CF09F0A3
:021630001200A6
:0E16320009C013F008C012F008500D02F4CFEA
:1016400007F0F3CF06F009500E02F4CF09F0F3CF04
:1016500008F00D02F3500726F4500822E86A092228
:1016600012500E02F3500726F4500822E86A0922AD
:101670000EAE3FEF0BF01250085E1350095A13AE36
:0C168000000C0D50085E0E50095A000CC2
:04168C00D9CFE6FFCD
:10169000E1CFD9FF040EE66ED2EC0BF0E552D95043
:1016A000FB0FE96EFF0EDA20EA6EEF06EECF14F0C4
:1016B000000EEF5AEECF15F0EF5AEECF16F0EF5ABC
:1016C000EFCF17F01450151016101710E3E1E55284
:0616D000E7CFD9FF120074
:0A16D600056A046A036A026A200E26
:1016E000E76ED890063607360836093602360336D6
:1016F000043605360B50025C0C5003580D5004584C
:101700000E50055809E30B50025E0C50035A0D5061
:0E171000045A0E50055A062AE72EE4D712009E
:02171E00526F08
:10172000772033202020202020202020202000523D
:101730006F77203220202020202020202020200011
:1017400048656C6C6F20776F726C642121212121B8
:011750000098
:0E175200D9CFE6FFDACFE6FFE1CFD9FFE2CF35
:10176000DAFFC30EC214146EFD0EDB407F0B3C0B80
:101770001410C26EE552E5CFDAFFE7CFD9FF1200B1
:10178000F36AF46AFF0EE124E96EFF0EE220EA6ECE
:10179000ED6607D02F0EEF6404D03A0EEF6001D053
:0417A000F32A120016
:0C17A400FF0EE3501C6E480E01D04C0EEE
:1017B000E76EE72EFED7E76AE72EFED71C2EF7D797
:0417C0000000120013
:0C17C400600EF36E00EE00F00F0E01D876
:1017D0001200EA6002D0EE6AFCD7F350E960120012
:0417E000EE6AFCD7DA
:0C17E4001EEE00F02EEE00F0F86A019CF2
:1017F00068EC09F02DEC0CF06AEC08F0FBD7120055
:10180000FF0EE350ACBA04D0AF6AAB8EAC8A949CA6
:0C181000ACA2FED7AD6EF36EF46A1200BD
:04181C00FF0EE35088
:10182000E84E1200000000D000D000D0E82EFAD719
:021830001200A4
:0E183200C450176E166AC3501610F36E17C01E
:04184000F4FF12009F
:0C184400303132333435363738396162C8
:05185000636465660001
:04185600C282120038
:02185A0012007A
:04185C000000000088
:0618600000000000000082
:02186600000080
:020000040030CA
:0100010008F6
:010002001FDE
:010003001EDE
:01000400F308
:010005008377
:010006008178
:00000001FF
