:040000000BEF09F009
:101000000048454A0000C78EC79CC68AC688C6905D
:101010008882838E280E126E000E136E000E146EE0
:10102000000E156EEBEC08F0390EFDEC08F01D0E0D
:10103000FDEC08F0500EFDEC08F06C0EFDEC08F035
:10104000C80E126E000E136E000E146E000E156E9A
:10105000EBEC08F07B0EFDEC08F0380EFDEC08F030
:101060000C0EFDEC08F0010EFDEC08F0020E126E05
:10107000000E136E000E146E000E156EEBEC08F0F1
:10108000060EFDEC08F012009A989A9A9A9C9A9E85
:1010900095829580928E9A869388938A969E96984A
:1010A0009696969496929690989099889782978023
:1010B0009286928492829280928A978C9784998E5B
:1010C000978A9786998C998A9788979E959E9A90E9
:1010D0009A92949A949695949596979E8898889AC1
:1010E000889C889E849E849884968494849284901C
:1010F00086908696839E83948396858E12001550E3
:101100008009FDEC08F08880000E166E15D09E96C2
:1011100088921650010DF3501324D96EF450142008
:10112000DA6EDF50C96E00D09EA6FED78882020E0E
:1011300014EC09F0162A00D01650010DF3501324B8
:10114000D96EF4501420DA6EDF50D8B404D00F0EEC
:101150001664DDD700D0120044EC08F003EC08F070
:10116000010ED5EC08F0010EF66E100EF76E000EB3
:10117000F86E0900F5CF17F00900F5CF18F00A0056
:10118000F5CF19F0010E1A6E1DEC09F0170E136E53
:10119000000E146E1AC015F07FEC08F08898889A3B
:1011A000889C888EFFD700EF00F0116E08D08394E2
:1011B000839610D0839401D0838483860BD0115002
:1011C000000AD8B4F4D7010AD8B4F4D7030AD8B4C3
:1011D000F3D700D01200040E14EC09F0FF0E122613
:1011E000FF0E1322FF0E1422FF0E152212501310B1
:1011F00014101510D8A4EFD71200126E88909E9686
:10120000889212C0C9FF00D09EA6FED78882020E27
:1012100014EC09F0120000EE01F0100EEE6AE80680
:10122000FDE10001ACEF08F0116EFA0E00F0E82EBF
:10123000FDD7112EFAD700D01200010EFDEC08F0F8
:08124000020E14EC09F012008B
:020000040020DA
:08000000FFFFFFFFFFFFFFFF00
:020000040030CA
:0E000000FF081F1EF38381FFFFC0FFE0FF40DB
:00000001FF
